{
  "contractName": "AdvanceStorage",
  "abi": [
    {
      "inputs": [
        {
          "internalType": "uint256",
          "name": "",
          "type": "uint256"
        }
      ],
      "name": "ids",
      "outputs": [
        {
          "internalType": "uint256",
          "name": "",
          "type": "uint256"
        }
      ],
      "stateMutability": "view",
      "type": "function",
      "constant": true
    },
    {
      "inputs": [
        {
          "internalType": "uint256",
          "name": "_id",
          "type": "uint256"
        }
      ],
      "name": "addNumber",
      "outputs": [],
      "stateMutability": "nonpayable",
      "type": "function"
    },
    {
      "inputs": [
        {
          "internalType": "uint256",
          "name": "_index",
          "type": "uint256"
        }
      ],
      "name": "getAtIndex",
      "outputs": [
        {
          "internalType": "uint256",
          "name": "",
          "type": "uint256"
        }
      ],
      "stateMutability": "view",
      "type": "function",
      "constant": true
    },
    {
      "inputs": [],
      "name": "getAll",
      "outputs": [
        {
          "internalType": "uint256[]",
          "name": "",
          "type": "uint256[]"
        }
      ],
      "stateMutability": "view",
      "type": "function",
      "constant": true
    },
    {
      "inputs": [],
      "name": "getLength",
      "outputs": [
        {
          "internalType": "uint256",
          "name": "",
          "type": "uint256"
        }
      ],
      "stateMutability": "view",
      "type": "function",
      "constant": true
    }
  ],
  "bytecode": "0x608060405234801561001057600080fd5b506103c6806100206000396000f3fe608060405234801561001057600080fd5b50600436106100575760003560e01c80631b26aafd1461005c57806353ed51431461008c578063be1c766b146100aa578063fac333ac146100c8578063fce68023146100f8575b600080fd5b6100766004803603810190610071919061022a565b610114565b6040516100839190610266565b60405180910390f35b61009461013b565b6040516100a1919061033f565b60405180910390f35b6100b2610193565b6040516100bf9190610266565b60405180910390f35b6100e260048036038101906100dd919061022a565b61019f565b6040516100ef9190610266565b60405180910390f35b610112600480360381019061010d919061022a565b6101c3565b005b600080828154811061012957610128610361565b5b90600052602060002001549050919050565b6060600080548060200260200160405190810160405280929190818152602001828054801561018957602002820191906000526020600020905b815481526020019060010190808311610175575b5050505050905090565b60008080549050905090565b600081815481106101af57600080fd5b906000526020600020016000915090505481565b600081908060018154018082558091505060019003906000526020600020016000909190919091505550565b600080fd5b6000819050919050565b610207816101f4565b811461021257600080fd5b50565b600081359050610224816101fe565b92915050565b6000602082840312156102405761023f6101ef565b5b600061024e84828501610215565b91505092915050565b610260816101f4565b82525050565b600060208201905061027b6000830184610257565b92915050565b600081519050919050565b600082825260208201905092915050565b6000819050602082019050919050565b6102b6816101f4565b82525050565b60006102c883836102ad565b60208301905092915050565b6000602082019050919050565b60006102ec82610281565b6102f6818561028c565b93506103018361029d565b8060005b8381101561033257815161031988826102bc565b9750610324836102d4565b925050600181019050610305565b5085935050505092915050565b6000602082019050818103600083015261035981846102e1565b905092915050565b7f4e487b7100000000000000000000000000000000000000000000000000000000600052603260045260246000fdfea2646970667358221220fef212268d866d5edb62d5505892a88e7e7b60d5e6af86482bcd83c402fe0a2464736f6c634300080a0033",
  "immutableReferences": {},
  "source": "// SPDX-License-Identifier: MIT\npragma solidity ^0.8.0;\n\ncontract AdvanceStorage {\n  uint256[] public ids;\n\n  function addNumber(uint256 _id) external {\n    ids.push(_id);\n  }\n\n  function getAtIndex(uint256 _index) external view returns(uint256) {\n    return ids[_index];\n  }\n\n  function getAll() external view returns(uint256[] memory){\n    return ids;\n  }\n\n  function getLength() external view returns(uint256) {\n    return ids.length;\n  }\n  \n}\n",
  "sourcePath": "C:\\Sandip@IBM\\BlockChainDev\\AdvanceStorage\\contracts\\AdvanceStorage.sol",
  "compiler": {
    "name": "solc",
    "version": "0.8.10+commit.fc410830.Emscripten.clang"
  },
  "schemaVersion": "3.4.3",
  "updatedAt": "2022-03-10T14:22:04.607Z",
  "networkType": "ethereum",
  "devdoc": {
    "kind": "dev",
    "methods": {},
    "version": 1
  },
  "userdoc": {
    "kind": "user",
    "methods": {},
    "version": 1
  }
}